:100000000C942A000C9447000C9447000C94470071
:100010000C9447000C9447000C9447000C94470044
:100020000C9447000C9447000C9447000C94470034
:100030000C9447000C9487000C9447000C944700E4
:100040000C9447000C9447000C9447000C94470014
:100050000C94470011241FBECFE5D8E0DEBFCDBF12
:1000600011E0A0E6B0E0EAE8F5E002C005900D92EC
:10007000AA39B107D9F711E0AAE9B1E001C01D9290
:10008000AF3FB107E1F70E94E6000C94C3020C9465
:10009000000082E08BB988E98AB986E880BD88E0F3
:1000A00089B910BC08955D9BFECF8CB908955F9B04
:1000B000FECF8CB10895FC0104C05D9BFECF8CB9CE
:1000C000319680818823C9F708950F931F93DF939A
:1000D000CF93CDB7DEB764970FB6F894DEBF0FBEEF
:1000E000CDBF8E010F5F1F4FB8014AE050E00E9464
:1000F0007E02C8010E945B0064960FB6F894DEBFD2
:100100000FBECDBFCF91DF911F910F9108951F9228
:100110000F920FB60F9211242F938F939F93EF930B
:10012000FF932FB7F89480919A019CB1E82FF0E0EB
:10013000E556FE4F90838F5F80939A01843611F4C9
:1001400010929A012FBFFF91EF919F918F912F9164
:100150000F900FBE0F901F901895FF920F931F9353
:10016000CF93DF938C01F62E10929A0180E690E0F7
:100170000E94F301CBE9D1E0CE010E94F3018AE6AF
:1001800090E00E94F301CE01B8014F2D50E00E9493
:100190007002009769F480E790E00E94F301CE01BD
:1001A00060E070E04F2D50E00E94690281E008C0DD
:1001B000CE0160E070E04F2D50E00E94690280E0C7
:1001C000DF91CF911F910F91FF90089580E181BB46
:1001D0000E9449000E94D001789482E890E00E9439
:1001E0005B0080E197E228EC30E0F9013197F1F70C
:1001F0000197D9F789E890E066E00E94AD0080E9B8
:1002000090E00E945B0080E395E728EC30E0F90184
:100210003197F1F70197D9F789E890E066E00E94FD
:10022000AD008EE990E00E945B0080E395E728EC4A
:1002300030E0F9013197F1F70197D9F789E890E0BB
:1002400066E00E94AD008CEA90E00E945B0080E3D3
:1002500095E728EC30E0F9013197F1F70197D9F7EC
:1002600089E890E066E00E94AD008BEB90E00E9490
:100270005B0080E395E728EC30E0F9013197F1F776
:100280000197D9F780E395E728EC30E0F901319741
:10029000F1F70197D9F780E395E728EC30E0F90111
:1002A0003197F1F70197D9F780E395E728EC30E033
:1002B000F9013197F1F70197D9F780E395E728EC39
:1002C00030E0F9013197F1F70197D9F780E395E72D
:1002D00028EC30E0F9013197F1F70197D9F789EE71
:1002E00090E063E20E94AD008DE091E00E945B002F
:1002F00080E395E728EC30E0F9013197F1F70197B9
:10030000D9F780E395E728EC30E0F9013197F1F770
:100310000197D9F780E395E728EC30E0F9013197B0
:10032000F1F70197D9F780E395E728EC30E0F90180
:100330003197F1F70197D9F780E395E728EC30E0A2
:10034000F9013197F1F70197D9F789E391E06FE06F
:100350000E94AD0089E491E00E945B0080E395E794
:1003600028EC30E0F9013197F1F70197D9F789E8E6
:1003700090E066E00E94AD0089E591E00E945B009C
:1003800080E395E728EC30E0F9013197F1F7019728
:10039000D9F78AE891E00E94F30180E090E00895A7
:1003A000D19AD99A0895582FD99880EA91E0019767
:1003B000F1F741E020E030E060EA71E0842F85232E
:1003C00011F0D99A01C0D998CB010197F1F7440FE8
:1003D0002F5F3F4F2830310589F7D99A80EA91E0A5
:1003E0000197F1F708951F93CF93DF93EC0110E08D
:1003F00003C00E94D3011F5FFE01E10FF11D808148
:100400008823B9F7DF91CF911F910895CF93DF93A0
:10041000EC01FC01849105C021960E94D301FE01EC
:1004200084918823C9F7DF91CF9108958A3010F025
:10043000895A01C0805D0E94D30108951F93182F2F
:1004400082958F700E941602812F8F700E94160273
:100450001F9108951F93182F892F0E941E02812F2C
:100460000E941E021F910895EF92FF920F931F9317
:100470007B018C01C801AA27BB270E942A02C70161
:100480000E942A021F910F91FF90EF9008950F9301
:100490001F93DF93CF93CDB7DEB764970FB6F89471
:1004A000DEBF0FBECDBF8E010F5F1F4FB8014AE008
:1004B00050E00E947E02C8010E94F30164960FB6CC
:1004C000F894DEBF0FBECDBFCF91DF911F910F918A
:1004D0000895DC0101C06D9341505040E0F708954C
:1004E000FB01DC014150504030F08D9101908019AA
:1004F00019F40020B9F7881B990B0895FB019F019F
:10050000E8944230C4F04532B4F44A3029F497FB01
:100510001EF4909581959F4F642F77270E94AF021C
:10052000805D8A330CF0895D8193CB010097A1F740
:1005300016F45DE251931082C9010C949F02DC0114
:10054000FC01672F71917723E1F7329704C07C910A
:100550006D9370836291AE17BF07C8F30895AA1B0D
:10056000BB1B51E107C0AA1FBB1FA617B70710F09E
:10057000A61BB70B881F991F5A95A9F780959095D0
:0A058000BC01CD010895F894FFCFEF
:10058A00526573706F6E640D0A00454E440D0A0081
:10059A00526573706F6E64206D6174636865640D73
:1005AA000A00415445300D0A000D0A4F4B0D0A004E
:1005BA0041542B43574D4F44453D330D0A00415496
:1005CA002B4349504D55583D300D0A0041542B4399
:1005DA0049504D4F44453D300D0A0041542B435775
:1005EA004A41505F4445463D22456D6265646465F3
:1005FA0064666162222C22456D6265646465646684
:10060A006162313335220D0A005749464920434F6A
:10061A004E4E45435445440D0A5749464920474FD3
:10062A00542049500D0A0D0A4F4B0D0A0041542B14
:10063A0043495053544152543D22544350222C2290
:10064A006170692E7468696E67737065616B2E6379
:10065A006F6D222C38300D0A00434F4E4E454354DD
:10066A000D0A0D0A4F4B0D0A0041542B43495053B2
:10067A00454E443D34380D0A00474554202F7570C5
:10068A00646174653F6170695F6B65793D53443598
:10069A004F424434394E3548344F385259266669E8
:1006AA00656C64313D36300D0A00444F4E45205783
:0A06BA00726974696E670D0A000092
:00000001FF
