:100000000C942A000C9447000C9447000C94470071
:100010000C9447000C9447000C9447000C94470044
:100020000C9447000C9447000C9447000C94470034
:100030000C9447000C9487000C9447000C944700E4
:100040000C9447000C9447000C9447000C94470014
:100050000C94470011241FBECFE5D8E0DEBFCDBF12
:1000600011E0A0E6B0E0E8E6F5E002C005900D92F0
:10007000A038B107D9F711E0A0E8B1E001C01D92A6
:10008000A53EB107E1F70E94E6000C94B2020C9481
:10009000000082E08BB988E98AB986E880BD88E0F3
:1000A00089B910BC08955D9BFECF8CB908955F9B04
:1000B000FECF8CB10895FC0104C05D9BFECF8CB9CE
:1000C000319680818823C9F708950F931F93DF939A
:1000D000CF93CDB7DEB764970FB6F894DEBF0FBEEF
:1000E000CDBF8E010F5F1F4FB8014AE050E00E9464
:1000F0006D02C8010E945B0064960FB6F894DEBFE3
:100100000FBECDBFCF91DF911F910F9108951F9228
:100110000F920FB60F9211242F938F939F93EF930B
:10012000FF932FB7F894809180019CB1E82FF0E005
:10013000EF57FE4F90838F5F80938001843611F4D8
:10014000109280012FBFFF91EF919F918F912F917E
:100150000F900FBE0F901F901895FF920F931F9353
:10016000CF93DF938C01F62E1092800180E690E011
:100170000E94E201C1E8D1E0CE010E94E2018AE6DC
:1001800090E00E94E201CE01B8014F2D50E00E94A4
:100190005F02009769F480E790E00E94E201CE01DF
:1001A00060E070E04F2D50E00E94580281E008C0EE
:1001B000CE0160E070E04F2D50E00E94580280E0D8
:1001C000DF91CF911F910F91FF90089580E181BB46
:1001D0000E9449000E94BF01789482E890E00E944A
:1001E0005B0080E197E228EC30E0F9013197F1F70C
:1001F0000197D9F789E890E00E945B0080E395E7DA
:1002000028EC30E0F9013197F1F70197D9F787E948
:1002100090E00E945B0080E395E728EC30E0F90174
:100220003197F1F70197D9F785EA90E00E945B00DA
:1002300080E395E728EC30E0F9013197F1F7019779
:10024000D9F784EB90E00E945B0080E395E728EC0F
:1002500030E0F9013197F1F70197D9F780E395E79D
:1002600028EC30E0F9013197F1F70197D9F780E3F5
:1002700095E728EC30E0F9013197F1F70197D9F7CC
:1002800080E395E728EC30E0F9013197F1F7019729
:10029000D9F780E395E728EC30E0F9013197F1F7E1
:1002A0000197D9F782EE90E00E945B0080E395E72A
:1002B00028EC30E0F9013197F1F70197D9F781E1A6
:1002C00091E00E945B0080E197E228EC30E0F901C8
:1002D0003197F1F70197D9F780E10E9453008CE143
:1002E0000E94530080E00E94530084E00E9453006B
:1002F00081E291E00E945B0084E00E94530082E072
:100300000E94530080E00E9453008CE30E9453003F
:1003100080E00E94530080E10E94530086E291E059
:100320000E945B0080E197E228EC30E0F901319710
:10033000F1F70197D9F787E391E00E945B0080E134
:1003400097E228EC30E0F9013197F1F70197D9F7FE
:1003500080E30E94530089E30E94530080E00E94E2
:10036000530086E30E94530087E491E00E945B0003
:100370008EE791E00E945B0080E090E00895D19AC2
:10038000D99A0895582FD99880EA91E00197F1F70A
:1003900041E020E030E060EA71E0842F852311F035
:1003A000D99A01C0D998CB010197F1F7440F2F5F7B
:1003B0003F4F2830310589F7D99A80EA91E00197BB
:1003C000F1F708951F93CF93DF93EC0110E003C082
:1003D0000E94C2011F5FFE01E10FF11D8081882391
:1003E000B9F7DF91CF911F910895CF93DF93EC017F
:1003F000FC01849105C021960E94C201FE018491F6
:100400008823C9F7DF91CF9108958A3010F0895A77
:1004100001C0805D0E94C20108951F93182F82952C
:100420008F700E940502812F8F700E9405021F911C
:1004300008951F93182F892F0E940D02812F0E946B
:100440000D021F910895EF92FF920F931F937B016E
:100450008C01C801AA27BB270E941902C7010E946C
:1004600019021F910F91FF90EF9008950F931F9322
:10047000DF93CF93CDB7DEB764970FB6F894DEBFA6
:100480000FBECDBF8E010F5F1F4FB8014AE050E095
:100490000E946D02C8010E94E20164960FB6F894B2
:1004A000DEBF0FBECDBFCF91DF911F910F91089599
:1004B000DC0101C06D9341505040E0F70895FB010D
:1004C000DC014150504030F08D910190801919F4B9
:1004D0000020B9F7881B990B0895FB019F01E89450
:1004E0004230C4F04532B4F44A3029F497FB1EF48C
:1004F000909581959F4F642F77270E949E02805D83
:100500008A330CF0895D8193CB010097A1F716F433
:100510005DE251931082C9010C948E02DC01FC0152
:10052000672F71917723E1F7329704C07C916D9327
:1005300070836291AE17BF07C8F30895AA1BBB1B57
:1005400051E107C0AA1FBB1FA617B70710F0A61BD3
:10055000B70B881F991F5A95A9F780959095BC01F4
:08056000CD010895F894FFCFCE
:10056800526573706F6E640D0A00454E440D0A00A3
:10057800526573706F6E64206D6174636865640D95
:100588000A00415445300D0A0041542B43574D4F42
:1005980044453D330D0A0041542B4349504D5558AD
:1005A8003D300D0A0041542B4349504D4F44453DC1
:1005B800300D0A0041542B43574A41505F44454689
:1005C8003D22456D626564646564666162222C2221
:1005D800456D626564646564666162313335220D18
:1005E8000A0041542B43495053544152543D22541C
:1005F8004350222C226D7174742E7468696E67736F
:100608007065616B2E636F6D222C313838330D0A9B
:100618000041542B43495053454E443D33300D0A55
:10062800004D515454003147434E323539594D55D8
:100638004445324A57520041542B43495053454E82
:10064800443D35390D0A006368616E6E656C732F21
:100658003933313034372F7075626C6973682F669F
:1006680069656C64732F6669656C64332F53443510
:100678004F424434394E3548344F385259003800C7
:00000001FF
