:100000000C942A000C9447000C9447000C94470071
:100010000C9447000C9447000C9447000C94470044
:100020000C9447000C9447000C9447000C94470034
:100030000C9447000C9487000C9447000C944700E4
:100040000C9447000C9447000C9447000C94470014
:100050000C94470011241FBECFE5D8E0DEBFCDBF12
:1000600011E0A0E6B0E0EEEAF4E002C005900D92E7
:10007000A03EB107D9F712E0A0EEB1E001C01D9299
:10008000A534B107E1F70E94DA000C9455020C94F4
:10009000000082E08BB988E98AB986E880BD88E0F3
:1000A00089B910BC08955D9BFECF8CB908955F9B04
:1000B000FECF8CB10895FC0104C05D9BFECF8CB9CE
:1000C000319680818823C9F708950F931F93DF939A
:1000D000CF93CDB7DEB764970FB6F894DEBF0FBEEF
:1000E000CDBF8E010F5F1F4FB8014AE050E00E9464
:1000F0001002C8010E945B0064960FB6F894DEBF40
:100100000FBECDBFCF91DF911F910F9108951F9228
:100110000F920FB60F9211242F938F939F93EF930B
:10012000FF932FB7F8948091E0019CB1E82FF0E0A5
:10013000EF51FE4F90838F5F8093E001843611F47E
:100140001092E0012FBFFF91EF919F918F912F911E
:100150000F900FBE0F901F9018951092E00184E64B
:10016000E1EEF1E0DF011D928A95E9F70895BC0107
:1001700081EE91E00E94F601009711F480E008956D
:100180000E94AD0081E00895BC01DC010D900020CB
:10019000E9F71197A81BB90B81EE91E04A2F50E0C7
:1001A0000E94E801009711F080E008950E94AD00E0
:1001B00081E00895CF93DF9380E181BB0E944900E5
:1001C000789480E197E228EC30E0F9013197F1F77B
:1001D0000197D9F70E94AD0080E690E00E945B0095
:1001E000C0EDD7E003C0CE010197F1F787E690E0BC
:1001F0000E94C400882331F48EE690E00E94C4007F
:10020000882389F38DE790E00E945B00C0EDD7E082
:1002100003C0CE010197F1F787E690E00E94C40089
:100220008823B9F38BE890E00E945B00C0EDD7E033
:1002300003C0CE010197F1F787E690E00E94C40069
:100240008823B9F389E990E00E945B00C0EDD7E014
:1002500003C0CE010197F1F787E690E00E94C40049
:100260008823B9F388EA90E00E945B00C0EDD7E0F4
:1002700003C0CE010197F1F786ED90E00E94C40023
:100280008823B9F38BE091E00E945B00C0EDD7E0DA
:1002900003C0CE010197F1F78AE391E00E94C40008
:1002A0008823B9F38AE491E00E945B00C0EDD7E0B7
:1002B00003C0CE010197F1F78AE591E00E94C400E6
:1002C0008823B9F380E10E94530083E30E94530026
:1002D00080E00E94530084E00E94530083E691E096
:1002E0000E945B0084E00E94530082EC0E94530055
:1002F00080E00E9453008CE30E94530080E00E9443
:10030000530080E10E94530088E691E00E945B0068
:1003100080E00E94530083E00E94530089E791E04F
:100320000E945B0080E00E94530080E10E94530025
:100330008DE791E00E945B00C0EDD7E003C0CE01E5
:100340000197F1F78EE891E00E94B7008823B9F396
:1003500080E197E228EC30E0F9013197F1F701975D
:10036000D9F70E94AD0083E991E00E945B00C0EDE7
:10037000D7E003C0CE010197F1F78AE591E00E9432
:10038000C4008823B9F380E30E94530089E30E94EC
:10039000530080E00E94530086E30E94530083EAEA
:1003A00091E00E945B008DEA91E00E945B0084EB8B
:1003B00091E00E945B008CEC91E00E945B008DED6F
:1003C00091E00E945B0080E090E0DF91CF91089582
:1003D000FB01DC014150504030F08D9101908019BB
:1003E00019F40020B9F7881B990B0895FB0151916E
:1003F0005523A9F0BF01DC014D9145174111E1F7EB
:1004000059F4CD010190002049F04D914015411162
:10041000C9F3FB014111EFCF81E090E0019708950E
:10042000FB019F01E8944230C4F04532B4F44A30F5
:1004300029F497FB1EF4909581959F4F642F7727A1
:100440000E944102805D8A330CF0895D8193CB016B
:100450000097A1F716F45DE251931082C9010C9444
:100460003102DC01FC01672F71917723E1F73297AC
:1004700004C07C916D9370836291AE17BF07C8F37F
:100480000895AA1BBB1B51E107C0AA1FBB1FA617DB
:10049000B70710F0A61BB70B881F991F5A95A9F72D
:0E04A00080959095BC01CD010895F894FFCF92
:1004AE00415445300D0A000D0A4F4B0D0A000D0A3E
:1004BE00415445300D0A0D0A4F4B0D0A0041542B85
:1004CE0043574D4F44453D330D0A0041542B43498C
:1004DE00504D55583D300D0A0041542B4349504D57
:1004EE004F44453D300D0A0041542B43574A41506D
:1004FE005F4445463D22456D626564646564666190
:10050E0062222C22456D62656464656466616231A7
:10051E003335220D0A005749464920444953434F6B
:10052E004E4E4543540D0A5749464920434F4E4EB1
:10053E0045435445440D0A5749464920474F5420D8
:10054E0049500D0A0D0A4F4B0D0A0041542B4349D9
:10055E005053544152543D22544350222C226D711B
:10056E0074742E7468696E67737065616B2E636F39
:10057E006D222C313838330D0A00434F4E4E454311
:10058E00540D0A0D0A4F4B0D0A0041542B4349508E
:10059E0053454E443D35330D0A000D0A4F4B0D0A9F
:1005AE003E20004D5154540031313233327369794B
:1005BE003177657531653231006E6D720047585175
:1005CE004438564E373852414953415548002B490D
:1005DE0050440041542B43495053454E443D353908
:1005EE000D0A006368616E6E656C732F00393936C3
:1005FE00373336002F7075626C6973682F666965C4
:10060E006C64732F6669656C64322F00524E4E4EC9
:10061E003930584B41544153555A5A470037000010
:00000001FF
