:100000000C942A000C9447000C9447000C94470071
:100010000C9447000C9447000C9447000C94470044
:100020000C9447000C9447000C9447000C94470034
:100030000C9447000C9487000C9447000C944700E4
:100040000C9447000C9447000C9447000C94470014
:100050000C94470011241FBECFE5D8E0DEBFCDBF12
:1000600012E0A0E6B0E0EAEBF4E002C005900D92E9
:10007000A230B107D9F712E0A2E0B2E001C01D92B0
:10008000A736B107E1F70E94DA000C945B020C94EA
:10009000000082E08BB988E98AB986E880BD88E0F3
:1000A00089B910BC08955D9BFECF8CB908955F9B04
:1000B000FECF8CB10895FC0104C05D9BFECF8CB9CE
:1000C000319680818823C9F708950F931F93DF939A
:1000D000CF93CDB7DEB764970FB6F894DEBF0FBEEF
:1000E000CDBF8E010F5F1F4FB8014AE050E00E9464
:1000F0001602C8010E945B0064960FB6F894DEBF3A
:100100000FBECDBFCF91DF911F910F9108951F9228
:100110000F920FB60F9211242F938F939F93EF930B
:10012000FF932FB7F894809102029CB1E82FF0E082
:10013000ED5FFD4F90838F5F80930202843611F450
:10014000109202022FBFFF91EF919F918F912F91FB
:100150000F900FBE0F901F9018951092020284E628
:10016000E3E0F2E0DF011D928A95E9F70895BC0112
:1001700083E092E00E94FC01009711F480E0089572
:100180000E94AD0081E00895BC01DC010D900020CB
:10019000E9F71197A81BB90B83E092E04A2F50E0D2
:1001A0000E94EE01009711F080E008950E94AD00DA
:1001B00081E00895CF93DF9380E181BB0E944900E5
:1001C000789480E29EE428EC30E0F9013197F1F771
:1001D0000197D9F70E94AD0080E690E00E945B0095
:1001E000C0EDD7E003C0CE010197F1F787E690E0BC
:1001F0000E94C400882331F48EE690E00E94C4007F
:10020000882389F38CE790E00E945B00C0EDD7E083
:1002100003C0CE010197F1F787E690E00E94C40089
:100220008823B9F38AE890E00E945B00C0EDD7E034
:1002300003C0CE010197F1F787E690E00E94C40069
:100240008823B9F388E990E00E945B00C0EDD7E015
:1002500003C0CE010197F1F787E690E00E94C40049
:100260008823B9F387EA90E00E945B00C0EDD7E0F5
:1002700003C0CE010197F1F785ED90E00E94C40024
:10028000882331F48AE091E00E94C400882389F336
:100290008EE291E00E945B00C0EDD7E003C0CE018A
:1002A0000197F1F78DE591E00E94C4008823B9F32E
:1002B0008DE691E00E945B00C0EDD7E003C0CE0167
:1002C0000197F1F78DE791E00E94C4008823B9F30C
:1002D00080E10E94530083E30E94530080E00E946B
:1002E000530084E00E94530086E891E00E945B0086
:1002F00084E00E94530082EC0E94530080E00E9440
:1003000053008CE30E94530080E00E94530080E180
:100310000E9453008BE891E00E945B0080E00E9405
:10032000530083E00E9453008CE991E00E945B003F
:1003300080E00E94530080E10E94530080EA91E037
:100340000E945B00C0EDD7E003C0CE010197F1F73A
:1003500081EB91E00E94B7008823B9F380E197E236
:1003600028EC30E0F9013197F1F70197D9F70E94B5
:10037000AD0086EB91E00E945B00C0EDD7E003C0CA
:10038000CE010197F1F78DE791E00E94C400882328
:10039000B9F380E30E94530089E30E94530080E098
:1003A0000E94530086E30E94530086EC91E00E9475
:1003B0005B0080ED91E00E945B0087ED91E00E9480
:1003C0005B008FEE91E00E945B0080E092E00E9473
:1003D0005B0080E090E0DF91CF910895FB01DC01AC
:1003E0004150504030F08D910190801919F4002057
:1003F000B9F7881B990B0895FB0151915523A9F07A
:10040000BF01DC014D9145174111E1F759F4CD01D0
:100410000190002049F04D9140154111C9F3FB01B5
:100420004111EFCF81E090E001970895FB019F011A
:10043000E8944230C4F04532B4F44A3029F497FBD2
:100440001EF4909581959F4F642F77270E94470255
:10045000805D8A330CF0895D8193CB010097A1F711
:1004600016F45DE251931082C9010C943702DC014D
:10047000FC01672F71917723E1F7329704C07C91DB
:100480006D9370836291AE17BF07C8F30895AA1BDE
:10049000BB1B51E107C0AA1FBB1FA617B70710F06F
:1004A000A61BB70B881F991F5A95A9F780959095A1
:0A04B000BC01CD010895F894FFCFC0
:1004BA00415445300D0A000D0A4F4B0D0A004154B4
:1004CA0045300D0D0A0D0A4F4B0D0A0041542B43BE
:1004DA00574D4F44453D330D0A0041542B43495073
:1004EA004D55583D300D0A0041542B4349504D4F4C
:1004FA0044453D300D0A0041542B43574A41505F51
:10050A004445463D22456D62656464656466616280
:10051A00222C22456D6265646465646661623133CA
:10052A0035220D0A005749464920444953434F4E44
:10053A004E4543540D0A5749464920434F4E4E45AE
:10054A00435445440D0A5749464920474F542049C8
:10055A00500D0A0D0A4F4B0D0A00574946492043D0
:10056A004F4E4E45435445440D0A57494649204784
:10057A004F542049500D0A0D0A4F4B0D0A004154A1
:10058A002B43495053544152543D22544350222C38
:10059A00226D7174742E7468696E67737065616B0D
:1005AA002E636F6D222C313838330D0A00434F4EBB
:1005BA004E4543540D0A0D0A4F4B0D0A0041542B68
:1005CA0043495053454E443D35330D0A000D0A4FF9
:1005DA004B0D0A3E20004D51545400313132333212
:1005EA007369793177657531653231006E6D7200E4
:1005FA004758514438564E37385241495341554865
:10060A00002B4950440041542B43495053454E4412
:10061A003D35390D0A006368616E6E656C732F0093
:10062A00393936373336002F7075626C6973682F23
:10063A006669656C64732F6669656C64312F005254
:10064A004E4E4E3930584B41544153555A5A470031
:02065A00370067
:00000001FF
